:020000040000fa
:080000000001040000000000f3
:020000040000fa
:100008009e0200006e020000740200007a020000e6
:10001800800200009e0200009e0200009e02000076
:100028009e0200009e0200009e020000940500004f
:100038009e0200009e020000900100009e02000047
:100048009e020000460200005a020000a4010000bf
:100058009e0200009e0200009e0200009e02000018
:100068009e0200009e0200009e0200009e02000008
:100078009e0200009e0200009e0200009e020000f8
:100088009e0200009e0200009e0200009e020000e8
:100098009e0200009e0200009e0200009e020000d8
:1000a8009e0200009e0200009e0200009e020000c8
:1000b8009e0200009e0200009e0200009e020000b8
:1000c8009e0200009e0200009e0200009e020000a8
:1000d8009e0200009e0200009e0200009e02000098
:1000e8009e0200009e0200009e0200009e02000088
:0800f8009e0200009e020000c0
:020000040000fa
:100108009e020000860200008c020000920200009d
:10011800980200009e0200009e0200009e0200005d
:100128009e0200009e0200009e020000940500004e
:100138009e0200009e020000900100009e02000046
:100148009e020000460200005a020000a4010000be
:100158009e0200009e0200009e0200009e02000017
:100168009e0200009e0200009e0200009e02000007
:100178009e0200009e0200009e0200009e020000f7
:100188009e0200009e0200009e0200009e020000e7
:100198009e0200009e0200009e0200009e020000d7
:1001a8009e0200009e0200009e0200009e020000c7
:1001b8009e0200009e0200009e0200009e020000b7
:1001c8009e0200009e0200009e0200009e020000a7
:1001d8009e0200009e0200009e0200009e02000097
:1001e8009e0200009e0200009e0200009e02000087
:0801f8009e0200009e020000bf
:020000040000fa
:10020000ef8920000ebf20000e01880000000000d2
:100210000c000700008d20000100200011000700e5
:10022000000020000000e000020032000000020098
:1002300000000000ec070200000000000040da00af
:100240000000fe004440a900000020000000e00083
:100250000300320000002000a00188004440a800f4
:100260000000060091018800800078000000eb008b
:1002700015003700e280400032a0b4009101ba00be
:10028000e280400032a0b4009102ba00e280400057
:1002900032a0b4000002eb00472bde00f507b200ed
:1002a000602ce10004003a000059eb008301e900f2
:1002b000fdff3e00040037006128e100010032002c
:1002c0000082eb00040007001101ba000200e00008
:1002d000e8ff3a00000006003159ba008301e90046
:1002e0000c0032002159ba008301e90008003200f5
:1002f0000400e00003003a00e280400032a0b400b5
:10030000f5ff370011d9ba008301e900faff3a007e
:100310008100e800e180400032a0b4000000060047
:100320003400f800881f780008002000a801880029
:100330004f0478000000fa0084c0a9000080fa0091
:100340003400f90000400600809fbe00829fbe007e
:100350003400f80000002000a00188000400fa002a
:10036000a042a90050448000018920000000400004
:10037000008040008000eb00010878000028200089
:10038000100798000000eb00000f78001100370004
:100390005144800050448000028920000000400049
:1003a00000004100100178001e009000100078004d
:1003b00000014100038920008180400081804100cc
:1003c000820878008000e8001e0090000108780094
:1003d0001e0fe8001e007800ef0f5000ecff340005
:1003e00050448000514480000289200081804000f8
:1003f0008100410091007800c488de00028920005d
:1004000000004000000041000108780051448000d5
:1004100010c0b300e48f5000010032000040eb0038
:100420008100e80051448800e04f50000200320093
:100430000000eb00504488005044800021882000d8
:10044000000040000080400010007800004078006c
:100450006f4060000080fb006f006000321580007c
:1004600001ff2f00810061000080700030158800be
:100470008560a900a042a8000080fa003400f900bd
:100480004f01be004f00be00004006003400f800df
:10049000881f780008002000a80188004f04780019
:1004a0000000fa008520a9000080fa003400f9005d
:1004b000004006003400f800881f78000800200083
:1004c000a80188004f0478000000fa008540a900c8
:1004d0000080fa003400f900004006000000fa0035
:1004e0008020a900ffff37000000fa008060a9000b
:1004f000ffff37000000fa008040a900ffff37002f
:100500000000fa008080a900ffff37000000fa0019
:100510008020a900ffff37000000fa008060a900da
:10052000ffff37000000fa008040a900ffff3700fe
:100530000000fa008080a900ffff37000000fa00e9
:04054000ffff370082
:020000040000fa
:100544000000fa000000eb00200888000000eb0027
:1005540000088800409c20001008880021088000c2
:10056400f0fc2f00008060000040a00020088800fc
:100574000421a900a1048000f0ff2800808060000d
:100584000000240000807000a00488008460a9009a
:100594008c60a80005e1a8000080fa0000000600b5
:1005a4000000fa0090168000c000b3009016880086
:1005b400f01680000000a000f0168800f1168000fc
:1005c400d0fb2f0000806000f016880031168000f8
:1005d400f0e72f00008060003016880011178000bb
:1005e400200420000080700010178800511680003d
:1005f4000018200000807000501688000080fa0067
:10060400000006000000fa00cdff0700e4ff070029
:100614000080fa00000006000000fa006116800065
:10062400000026000080700060168800c11680005b
:100634000013200000807000c01688000080fa00bb
:10064400000006000600fa00100798002107980031
:10065400110020002e0090000008dd00000f78003b
:100664001e009000900078001e00780080807000ca
:100674001e009000010878000080fa0000000600c7
:100684000600fa0010079800210798000000eb000c
:10069400000f7800110020002e0090000008dd00fb
:1006a400008fea001e009000900078001e00780081
:1006b400808060001e009000010878000080fa002d
:1006c400000006000600fa00000f780011079800e9
:1006d400220798002e009000e00f50000400320022
:1006e4009e0090001e007800d6ff0700030037002c
:1006f4009e0090001e007800e1ff07000080fa00d1
:10070400000006000400fa00000f780011079800aa
:10071400c1ff07001e0090004300dd008080e80058
:100724000080200000804000900078001e009000af
:100734004301dd000080200000004100100078002b
:10074400cfff07001e0090004300dd00e6004000dc
:100754000080200000804000900078001e0090007f
:100764004300dd00640140000080200000004100df
:1007740010007800c2ff0700000000001e0078008f
:10078400e00f50001c003a001e0090004300dd0002
:100794008080e80000802000008040009000780005
:1007a4001e0090004301dd00008020000000410095
:1007b4001000780064004000a2ff07001e009000b3
:1007c4004300dd00e600400000802000008040007f
:1007d400900078001e0090004300dd00640140009a
:1007e40000802000000041001000780064004000f8
:1007f400a3ff07001b0037001e0090004300dd002c
:100804008080e80000802000008040009000780094
:100814001e0090004301dd00008020000000410024
:10082400100078006400400095ff07001e0090004f
:100834004300dd00e600400000802000008040000e
:10084400900078001e0090004300dd006401400029
:100854000080200000004100100078006400400087
:1008640078ff07000080fa00000006000400fa0088
:10087400000f78001107980067ff07001e00900022
:100884004300dd008080e8000080200000804000fc
:10089400900078001e0090004301dd0000802000dd
:1008a400000041001000780075ff07001e00900052
:1008b4004300dd00e600400000802000008040008e
:1008c400900078001e0090004300dd0064014000a9
:1008d40000802000000041001000780068ff07003d
:1008e400000000001e0090004300dd008080e8004e
:1008f4000080200000804000900078001e009000de
:100904004301dd0000802000000041001000780059
:10091400640040005aff07001e0090004300dd0001
:10092400e600400000802000008040009000780035
:100934001e0090004300dd006401400000802000a0
:100944000000410010007800640040004cff0700e4
:100954000080fa00000006000000fa00e222a9006c
:1009640000000000a01680004200de00614060002c
:100974008080fb00c0892000010178008000eb002a
:1009840050ff0700a01680004300de0061406000b5
:100994008080fb00c0892000010178004100200014
:1009a40048ff0700001780000040780061406000a5
:1009b4008080fb00c08920000101780081002000b4
:1009c40040ff0700e222a80000000000e2c2a900e4
:1009d40000000000a01680004200de0061406000bc
:1009e4008080fb00c08920000101780011002000f4
:1009f40034ff0700a01680004300de006140600061
:100a04008080fb00c0892000010178005100200093
:100a14002cff070000178000004078006140600050
:100a24008080fb00c0892000010178009100200033
:100a340024ff0700e2c2a80000000000cae2a900e7
:100a440000000000a01680004200de00614060004b
:100a54008080fb00c0892000010178002100200073
:100a640018ff0700a01680004300de00614060000c
:100a74008080fb00c0892000010178006100200013
:100a840010ff0700001780000040780061406000fc
:100a94008080fb00c089200001017800a1002000b3
:100aa40008ff0700cae2a80000000000cb02a9006a
:100ab40000000000a01680004200de0061406000db
:100ac4008080fb00c08920000101780031002000f3
:100ad400fcfe0700a01680004300de0061406000b9
:100ae4008080fb00c0892000010178007100200093
:100af400f4fe0700001780000040780061406000a9
:100b04008080fb00c089200001017800b100200032
:100b1400ecfe0700cb02a800000000000080fa00f1
:100b2400000006003600f800809fbe00829fbe00d1
:100b3400849fbe00869fbe003400f80000002000a1
:100b4400a00188000000fa00d143800010c0b30067
:100b5400421f2000828f5000010032000040eb0051
:100b64008100e800d1438800e04f500003003200c8
:100b740010002000e04388000f003700d1438000bc
:100b840010c0b300723e2000828f500001003c0070
:100b94000040eb008100e800d1438800e04f5000a2
:100ba400050032000000eb00e04388000000eb0089
:100bb400d043880068ff0700c0438000ea0f50005c
:100bc40002003a000000eb00c0438800c0438000ec
:100bd400c200dd0000852000008040001000780085
:100be400e00f500023003200c0438000c200dd004b
:100bf400008520000080400010007800e10f5000c4
:100c04000a003200c0438000c200dd0000852000dd
:100c14000080400010007800e20f50000c003a0001
:100c2400e0438000e00f500009003200c14380001f
:100c3400c04380004200dd000081e8000085200000
:100c44000000410010007800aefe070011003700dc
:100c5400c1438000c04380004200dd000081e80001
:100c6400008520000000410010007800fffe07000e
:100c740008003700c1438000c04380004200dd000b
:100c84000081e80000852000000041001000780089
:100c9400f6fe0700c04380000000e800c04388005f
:100ca4008460a9000080fa003400f9004f03be00fc
:100cb4004f02be004f01be004f00be003600f900d7
:100cc400004006000000fa0051168000f0e72f00f3
:100cd400008060005016880081168000f0ff290013
:100ce4000080600080168800b116800030ff2f005d
:100cf40000806000b0168800e1168000f0ec2f0040
:100d040000806000e016880011178000c0fb2f00ef
:100d140000806000101788000080fa0000000600c0
:100d24000000fa00de22a900f01680000000d100c5
:100d3400614060000080fb0061006000f2168000ea
:100d4400e1ff2f008100610000807000f016880030
:100d5400f016800000407800614060000080fb00d5
:100d6400610060004300dd009216800071ff2f00d7
:100d74008100610000807000901688009016800049
:100d84004300de00614060000080fb006100600001
:100d94004200dd0092168000b1ff2f008100610047
:100da4000080700090168800901680004200de00db
:100db400614060000080fb00610060004e00dd00c7
:100dc40062168000f1ff2b0081006100008070003a
:100dd40060168800cda2a900601680004d00de00d8
:100de400614060000080fb00610060004800dd009d
:100df400c2168000f1ef2f008100610000807000b6
:100e0400c0168800c01680004800de006140600003
:100e14000080fb00610060004500dd00c216800018
:100e2400f1fd2f008100610000807000c016880071
:100e3400c01680004500de00614060000080fb00b9
:100e4400610060004400dd00c2168000f1fe2f0046
:100e54008100610000807000c016880099ff0700bf
:100e64000080fa00000006000000fa000000eb0019
:100e7400800888000000eb00300888000080eb0048
:100e84006008880081088000000320000080700052
:100e9400800888000421a9000000eb0000088800f5
:100ea400b1048000f08f2f0080806000004020009b
:100eb40000807000b004880084c0a9008cc0a80021
:100ec40011e1a8000080fa00000006000000fa000a
:100ed40010fb2f0040158800000e2000001588002c
:100ee40010002000301588000000eb005015880029
:100ef400f0f3200020158800c0032000101588009e
:100f040011158000f0ff21008080600000002200a5
:100f140000807000101588008560a9008d60a8000d
:100f2400a042a800a1e2a8000080fa000000060088
:100f34000000fa000de2a900de42a800de62a9006a
:100f4400dea2a9000d42a9006110800090ff2f00cd
:100f540000806000601088000c02a90071108000fd
:100f6400f0f32f0000806000701088000ea2a9002a
:100f740080202000a01088000de2a8000f42a800e5
:100f84000080fa00000006000000fa009dfd070042
:100f94000080fa00000006000000fa009efd070031
:100fa400d144800010c0b300ea8f50000100320029
:100fb4000040eb008100e800d1448800e04f50007d
:100fc400020032000000eb00d04488000080fa00e8
:100fd400000006000200fa00b0000700eaff070064
:100fe400110a800080ff2f0000806000100a880032
:100ff400d202a800e2a2a900dc22a800dc42a900d7
:10100400dc62a8000000eb00000f78000700370046
:101014001e007800c200dd00008520000080400032
:1010240021002000010878001e0fe8001e0078004f
:10103400e90f5000f6ff34000000eb00000f7800c9
:1010440022003700110020001e0078000008dd0097
:1010540080007800e044800000806000e00f5000d1
:101064000d0032001e007800c200dd000085200063
:101074000080400011002000010878001e00780064
:10108400c200dd0020852000008040008000eb00cd
:10109400010878000c0037001e007800c200dd0053
:1010a4000085200000804000110020000108780025
:1010b4001e007800c200dd00208520000080400072
:1010c40011002000010878001e0fe8001e007800bf
:1010d400e70f5000dbff3400e144800000102000e3
:1010e40000806000e00f50000f003200e1448000f7
:1010f4000020200000806000e00f50000500320056
:1011040010002000804388001000200090438800d5
:101114000900370010002000804388000000eb0025
:10112400904388000400370020002000804388009a
:101134000000eb0090438800e14480000040200060
:1011440000806000e00f50000f003200e144800096
:101154000080200000806000e00f50000500320095
:1011640010002000a043880010002000b043880035
:10117400b1ff370010002000a04388000000eb00fe
:10118400b0438800acff370020002000a043880053
:0c1194000000eb00b0438800a7ff37000c
:020000040000fa
:1011a0007e0800000e000000020000000000200089
:1011b0000001000002000300000600000000000023
:1011c0009a08000002000000020000000000000079
:1011d0008c0800000e000000000000000008000065
:1011e0007e00000002000000d802040000d80200c7
:1011f0000500d80002050000d802080000d802004f
:101200000800cc00020d0000d802050000cc02004e
:101210000d00d80002040000d802080000d8020027
:101220000400cc00020d0000cc020d0000cc020036
:101230000e00d80002080000cc020e0000d8020008
:101240000500cc00020e0000d802040000cc020011
:101250000e00000000000000000000000000000080
:10126000000000000000000000000000000000007e
:10127000000000000000000000000000000000006e
:10128000000000000000000000000000000000005e
:101290009c080000020000000000000000000000a8
:020000040000fa
:0c12a0000000fa000080fa0000000600c8
:020000040000fa
:0200000401f009
:04000000f3bf00004a
:020000040000fa
:0200000401f009
:04000400ff7f00007a
:020000040000fa
:0200000401f009
:040008006cff000089
:00000001FF